{
  "contractName": "Lottery",
  "abi": [
    {
      "inputs": [],
      "stateMutability": "nonpayable",
      "type": "constructor"
    },
    {
      "inputs": [],
      "name": "admin",
      "outputs": [
        {
          "internalType": "address",
          "name": "",
          "type": "address"
        }
      ],
      "stateMutability": "view",
      "type": "function",
      "constant": true
    },
    {
      "inputs": [
        {
          "internalType": "uint256",
          "name": "",
          "type": "uint256"
        }
      ],
      "name": "players",
      "outputs": [
        {
          "internalType": "address payable",
          "name": "",
          "type": "address"
        }
      ],
      "stateMutability": "view",
      "type": "function",
      "constant": true
    },
    {
      "stateMutability": "payable",
      "type": "receive",
      "payable": true
    },
    {
      "inputs": [],
      "name": "send",
      "outputs": [],
      "stateMutability": "payable",
      "type": "function",
      "payable": true
    },
    {
      "inputs": [],
      "name": "getBalance",
      "outputs": [
        {
          "internalType": "uint256",
          "name": "",
          "type": "uint256"
        }
      ],
      "stateMutability": "view",
      "type": "function",
      "constant": true
    },
    {
      "inputs": [],
      "name": "pickWinner",
      "outputs": [],
      "stateMutability": "nonpayable",
      "type": "function"
    },
    {
      "inputs": [
        {
          "internalType": "uint256",
          "name": "_amount",
          "type": "uint256"
        }
      ],
      "name": "stakeTokens",
      "outputs": [],
      "stateMutability": "nonpayable",
      "type": "function"
    }
  ],
  "bytecode": "0x608060405234801561001057600080fd5b5033600160006101000a81548173ffffffffffffffffffffffffffffffffffffffff021916908373ffffffffffffffffffffffffffffffffffffffff1602179055506000600160009054906101000a900473ffffffffffffffffffffffffffffffffffffffff169080600181540180825580915050600190039060005260206000200160009091909190916101000a81548173ffffffffffffffffffffffffffffffffffffffff021916908373ffffffffffffffffffffffffffffffffffffffff1602179055506109a5806100e66000396000f3fe6080604052600436106100595760003560e01c806312065fe0146101125780635d495aea1461013d5780637547c7a314610154578063b46300ec1461017d578063f71d96cb14610187578063f851a440146101c45761010d565b3661010d5767016345785d8a000034146100a8576040517f08c379a000000000000000000000000000000000000000000000000000000000815260040161009f906105e3565b60405180910390fd5b6000339080600181540180825580915050600190039060005260206000200160009091909190916101000a81548173ffffffffffffffffffffffffffffffffffffffff021916908373ffffffffffffffffffffffffffffffffffffffff160217905550005b600080fd5b34801561011e57600080fd5b506101276101ef565b604051610134919061061c565b60405180910390f35b34801561014957600080fd5b50610152610287565b005b34801561016057600080fd5b5061017b60048036038101906101769190610668565b6103d9565b005b6101856103dc565b005b34801561019357600080fd5b506101ae60048036038101906101a99190610668565b6103de565b6040516101bb91906106d6565b60405180910390f35b3480156101d057600080fd5b506101d961041d565b6040516101e69190610712565b60405180910390f35b60003373ffffffffffffffffffffffffffffffffffffffff16600160009054906101000a900473ffffffffffffffffffffffffffffffffffffffff1673ffffffffffffffffffffffffffffffffffffffff1614610281576040517f08c379a000000000000000000000000000000000000000000000000000000000815260040161027890610779565b60405180910390fd5b47905090565b600080600080549050610298610443565b6102a291906107c8565b815481106102b3576102b26107f9565b5b9060005260206000200160009054906101000a900473ffffffffffffffffffffffffffffffffffffffff1690508073ffffffffffffffffffffffffffffffffffffffff166108fc6064605a6103066101ef565b6103109190610857565b61031a91906108b1565b9081150290604051600060405180830381858888f19350505050158015610345573d6000803e3d6000fd5b50600160009054906101000a900473ffffffffffffffffffffffffffffffffffffffff1673ffffffffffffffffffffffffffffffffffffffff166108fc6064600a61038e6101ef565b6103989190610857565b6103a291906108b1565b9081150290604051600060405180830381858888f193505050501580156103cd573d6000803e3d6000fd5b506103d661047d565b50565b50565b565b600081815481106103ee57600080fd5b906000526020600020016000915054906101000a900473ffffffffffffffffffffffffffffffffffffffff1681565b600160009054906101000a900473ffffffffffffffffffffffffffffffffffffffff1681565b6000444260008054905060405160200161045f93929190610903565b6040516020818303038152906040528051906020012060001c905090565b600067ffffffffffffffff81111561049857610497610940565b5b6040519080825280602002602001820160405280156104c65781602001602082028036833780820191505090505b50600090805190602001906104dc9291906104df565b50565b828054828255906000526020600020908101928215610558579160200282015b828111156105575782518260006101000a81548173ffffffffffffffffffffffffffffffffffffffff021916908373ffffffffffffffffffffffffffffffffffffffff160217905550916020019190600101906104ff565b5b5090506105659190610569565b5090565b5b8082111561058257600081600090555060010161056a565b5090565b600082825260208201905092915050565b7f4d7573742073656e6420302e3120657468657220616d6f756e74000000000000600082015250565b60006105cd601a83610586565b91506105d882610597565b602082019050919050565b600060208201905081810360008301526105fc816105c0565b9050919050565b6000819050919050565b61061681610603565b82525050565b6000602082019050610631600083018461060d565b92915050565b600080fd5b61064581610603565b811461065057600080fd5b50565b6000813590506106628161063c565b92915050565b60006020828403121561067e5761067d610637565b5b600061068c84828501610653565b91505092915050565b600073ffffffffffffffffffffffffffffffffffffffff82169050919050565b60006106c082610695565b9050919050565b6106d0816106b5565b82525050565b60006020820190506106eb60008301846106c7565b92915050565b60006106fc82610695565b9050919050565b61070c816106f1565b82525050565b60006020820190506107276000830184610703565b92915050565b7f596f7520617265206e6f7420746865206f776e65720000000000000000000000600082015250565b6000610763601583610586565b915061076e8261072d565b602082019050919050565b6000602082019050818103600083015261079281610756565b9050919050565b7f4e487b7100000000000000000000000000000000000000000000000000000000600052601260045260246000fd5b60006107d382610603565b91506107de83610603565b9250826107ee576107ed610799565b5b828206905092915050565b7f4e487b7100000000000000000000000000000000000000000000000000000000600052603260045260246000fd5b7f4e487b7100000000000000000000000000000000000000000000000000000000600052601160045260246000fd5b600061086282610603565b915061086d83610603565b9250817fffffffffffffffffffffffffffffffffffffffffffffffffffffffffffffffff04831182151516156108a6576108a5610828565b5b828202905092915050565b60006108bc82610603565b91506108c783610603565b9250826108d7576108d6610799565b5b828204905092915050565b6000819050919050565b6108fd6108f882610603565b6108e2565b82525050565b600061090f82866108ec565b60208201915061091f82856108ec565b60208201915061092f82846108ec565b602082019150819050949350505050565b7f4e487b7100000000000000000000000000000000000000000000000000000000600052604160045260246000fdfea26469706673582212206017cb453296bd796c3e740c4a6a82a6a6e7d51c99629fd657c796265dcfc7a264736f6c634300080b0033",
  "immutableReferences": {},
  "source": "// SPDX-License-Identifier: MIT\r\npragma solidity >=0.4.22 <0.9.0;\r\n\r\ncontract Lottery {\r\n     //list of players registered in lotery\r\n    address payable[] public players;\r\n    address public admin;\r\n    \r\n    \r\n    /**\r\n     * @dev makes 'admin' of the account at point of deployement\r\n     */ \r\n    constructor() {\r\n        admin = msg.sender;\r\n        //automatically adds admin on deployment\r\n        players.push(payable(admin));\r\n    }\r\n    \r\n    modifier onlyOwner() {\r\n        require(admin == msg.sender, \"You are not the owner\");\r\n        _;\r\n    }\r\n    \r\n    \r\n    /**\r\n     * @dev requires the deposit of 0.1 ether and if met pushes on address on list\r\n     */ \r\n     receive() external payable {\r\n        //require that the transaction value to the contract is 0.1 ether\r\n        require(msg.value == 0.1 ether , \"Must send 0.1 ether amount\");\r\n        \r\n        //makes sure that the admin can not participate in lottery\r\n        // require(msg.sender != admin);\r\n        \r\n        // pushing the account conducting the transaction onto the players array as a payable adress\r\n        players.push(payable(msg.sender));\r\n    }\r\n    \r\n    function send() payable public {\r\n        \r\n    }\r\n    /**\r\n     * @dev gets the contracts balance\r\n     * @return contract balance\r\n    */ \r\n    function getBalance() public view onlyOwner returns(uint){\r\n        // returns the contract balance \r\n        return address(this).balance;\r\n    }\r\n    \r\n    /**\r\n     * @dev generates random int *WARNING* -> Not safe for public use, vulnerbility detected\r\n     * @return random uint\r\n     */ \r\n    function random() internal view returns(uint){\r\n       return uint(keccak256(abi.encodePacked(block.difficulty, block.timestamp, players.length)));\r\n    }\r\n    \r\n    /** \r\n     * @dev picks a winner from the lottery, and grants winner the balance of contract\r\n     */ \r\n    function pickWinner() public  {\r\n\r\n        //makes sure that we have enough players in the lottery  \r\n        // require(players.length >= 3 , \"Not enough players in the lottery\");\r\n        \r\n        address payable winner;\r\n        \r\n        //selects the winner with random number\r\n        winner = players[random() % players.length];\r\n        \r\n        //transfers balance to winner\r\n        winner.transfer( (getBalance() * 90) / 100); //gets only 90% of funds in contract\r\n        payable(admin).transfer( (getBalance() * 10) / 100); //gets remaining amount AKA 10% -> must make admin a payable account\r\n        \r\n        \r\n        //resets the plays array once someone is picked\r\n       resetLottery(); \r\n        \r\n    }\r\n\r\n    function stakeTokens(uint _amount) public {\r\n\r\n    }\r\n    \r\n    /**\r\n     * @dev resets the lottery\r\n     */ \r\n    function resetLottery() internal {\r\n        players = new address payable[](0);\r\n    }\r\n \r\n}\r\n",
  "sourcePath": "C:\\Users\\guill\\OneDrive\\Documentos\\Projects\\Lottery-Dapp-Solidity\\contracts\\Lottery.sol",
  "compiler": {
    "name": "solc",
    "version": "0.8.11+commit.d7f03943.Emscripten.clang"
  },
  "schemaVersion": "3.4.4",
  "updatedAt": "2022-01-23T14:21:28.505Z",
  "networkType": "ethereum",
  "devdoc": {
    "kind": "dev",
    "methods": {
      "constructor": {
        "details": "makes 'admin' of the account at point of deployement"
      },
      "getBalance()": {
        "details": "gets the contracts balance",
        "returns": {
          "_0": "contract balance"
        }
      },
      "pickWinner()": {
        "details": "picks a winner from the lottery, and grants winner the balance of contract"
      }
    },
    "version": 1
  },
  "userdoc": {
    "kind": "user",
    "methods": {},
    "version": 1
  }
}