{
  "contractName": "Lottery",
  "abi": [
    {
      "inputs": [],
      "stateMutability": "nonpayable",
      "type": "constructor"
    },
    {
      "inputs": [],
      "name": "admin",
      "outputs": [
        {
          "internalType": "address",
          "name": "",
          "type": "address"
        }
      ],
      "stateMutability": "view",
      "type": "function",
      "constant": true
    },
    {
      "inputs": [
        {
          "internalType": "uint256",
          "name": "",
          "type": "uint256"
        }
      ],
      "name": "players",
      "outputs": [
        {
          "internalType": "address payable",
          "name": "",
          "type": "address"
        }
      ],
      "stateMutability": "view",
      "type": "function",
      "constant": true
    },
    {
      "stateMutability": "payable",
      "type": "receive",
      "payable": true
    },
    {
      "inputs": [],
      "name": "getBalance",
      "outputs": [
        {
          "internalType": "uint256",
          "name": "",
          "type": "uint256"
        }
      ],
      "stateMutability": "view",
      "type": "function",
      "constant": true
    },
    {
      "inputs": [],
      "name": "addressesP",
      "outputs": [
        {
          "internalType": "uint256",
          "name": "",
          "type": "uint256"
        }
      ],
      "stateMutability": "view",
      "type": "function",
      "constant": true
    },
    {
      "inputs": [],
      "name": "pickWinner",
      "outputs": [],
      "stateMutability": "nonpayable",
      "type": "function"
    }
  ],
  "bytecode": "0x608060405234801561001057600080fd5b5033600160006101000a81548173ffffffffffffffffffffffffffffffffffffffff021916908373ffffffffffffffffffffffffffffffffffffffff1602179055506000600160009054906101000a900473ffffffffffffffffffffffffffffffffffffffff169080600181540180825580915050600190039060005260206000200160009091909190916101000a81548173ffffffffffffffffffffffffffffffffffffffff021916908373ffffffffffffffffffffffffffffffffffffffff160217905550610847806100e66000396000f3fe60806040526004361061004e5760003560e01c806302b90efc1461016257806312065fe01461018d5780635d495aea146101b8578063f71d96cb146101cf578063f851a4401461020c5761015d565b3661015d57670de0b6b3a7640000341461009d576040517f08c379a000000000000000000000000000000000000000000000000000000000815260040161009490610577565b60405180910390fd5b600160009054906101000a900473ffffffffffffffffffffffffffffffffffffffff1673ffffffffffffffffffffffffffffffffffffffff163373ffffffffffffffffffffffffffffffffffffffff1614156100f857600080fd5b6000339080600181540180825580915050600190039060005260206000200160009091909190916101000a81548173ffffffffffffffffffffffffffffffffffffffff021916908373ffffffffffffffffffffffffffffffffffffffff160217905550005b600080fd5b34801561016e57600080fd5b50610177610237565b60405161018491906105b0565b60405180910390f35b34801561019957600080fd5b506101a2610243565b6040516101af91906105b0565b60405180910390f35b3480156101c457600080fd5b506101cd61024b565b005b3480156101db57600080fd5b506101f660048036038101906101f191906105fc565b6103ac565b604051610203919061066a565b60405180910390f35b34801561021857600080fd5b506102216103eb565b60405161022e91906106a6565b60405180910390f35b60008080549050905090565b600047905090565b60016000805490501015610294576040517f08c379a000000000000000000000000000000000000000000000000000000000815260040161028b90610733565b60405180910390fd5b6000806000815481106102aa576102a9610753565b5b9060005260206000200160009054906101000a900473ffffffffffffffffffffffffffffffffffffffff1690508073ffffffffffffffffffffffffffffffffffffffff166108fc60026102fb610243565b61030591906107b1565b9081150290604051600060405180830381858888f19350505050158015610330573d6000803e3d6000fd5b50600160009054906101000a900473ffffffffffffffffffffffffffffffffffffffff1673ffffffffffffffffffffffffffffffffffffffff166108fc610375610243565b9081150290604051600060405180830381858888f193505050501580156103a0573d6000803e3d6000fd5b506103a9610411565b50565b600081815481106103bc57600080fd5b906000526020600020016000915054906101000a900473ffffffffffffffffffffffffffffffffffffffff1681565b600160009054906101000a900473ffffffffffffffffffffffffffffffffffffffff1681565b600067ffffffffffffffff81111561042c5761042b6107e2565b5b60405190808252806020026020018201604052801561045a5781602001602082028036833780820191505090505b5060009080519060200190610470929190610473565b50565b8280548282559060005260206000209081019282156104ec579160200282015b828111156104eb5782518260006101000a81548173ffffffffffffffffffffffffffffffffffffffff021916908373ffffffffffffffffffffffffffffffffffffffff16021790555091602001919060010190610493565b5b5090506104f991906104fd565b5090565b5b808211156105165760008160009055506001016104fe565b5090565b600082825260208201905092915050565b7f4d7573742073656e6420302e3120657468657220616d6f756e74000000000000600082015250565b6000610561601a8361051a565b915061056c8261052b565b602082019050919050565b6000602082019050818103600083015261059081610554565b9050919050565b6000819050919050565b6105aa81610597565b82525050565b60006020820190506105c560008301846105a1565b92915050565b600080fd5b6105d981610597565b81146105e457600080fd5b50565b6000813590506105f6816105d0565b92915050565b600060208284031215610612576106116105cb565b5b6000610620848285016105e7565b91505092915050565b600073ffffffffffffffffffffffffffffffffffffffff82169050919050565b600061065482610629565b9050919050565b61066481610649565b82525050565b600060208201905061067f600083018461065b565b92915050565b600061069082610629565b9050919050565b6106a081610685565b82525050565b60006020820190506106bb6000830184610697565b92915050565b7f4e6f7420656e6f75676820706c617965727320696e20746865206c6f7474657260008201527f7900000000000000000000000000000000000000000000000000000000000000602082015250565b600061071d60218361051a565b9150610728826106c1565b604082019050919050565b6000602082019050818103600083015261074c81610710565b9050919050565b7f4e487b7100000000000000000000000000000000000000000000000000000000600052603260045260246000fd5b7f4e487b7100000000000000000000000000000000000000000000000000000000600052601260045260246000fd5b60006107bc82610597565b91506107c783610597565b9250826107d7576107d6610782565b5b828204905092915050565b7f4e487b7100000000000000000000000000000000000000000000000000000000600052604160045260246000fdfea2646970667358221220e91fe57a52c2da8b9a475c47eccfa97f508fe9e1bfcc7127521093da5316a29b64736f6c634300080b0033",
  "immutableReferences": {},
  "source": "\r\npragma solidity >=0.5.0 <0.9.0;\r\n\r\n\r\n/** \r\n * @title Lottery\r\n * @dev Ether lotery that transfer contract amount to winner\r\n*/  \r\ncontract Lottery {\r\n    \r\n    //list of players registered in lotery\r\n    address payable[] public players;\r\n    address public admin;\r\n    \r\n    \r\n    /**\r\n     * @dev makes 'admin' of the account at point of deployement\r\n     */ \r\n    constructor() public {\r\n        admin = msg.sender;\r\n        //automatically adds admin on deployment\r\n        players.push(payable(admin));\r\n    }\r\n    \r\n    modifier onlyOwner() {\r\n        require(admin == msg.sender, \"You are not the owner\");\r\n        _;\r\n    }\r\n    \r\n    \r\n    /**\r\n     * @dev requires the deposit of 0.1 ether and if met pushes on address on list\r\n     */ \r\n    receive() external payable {\r\n        //require that the transaction value to the contract is 0.1 ether\r\n        require(msg.value == 1 ether , \"Must send 0.1 ether amount\");\r\n        \r\n        //makes sure that the admin can not participate in lottery\r\n        require(msg.sender != admin);\r\n        \r\n        // pushing the account conducting the transaction onto the players array as a payable adress\r\n        players.push(payable(msg.sender));\r\n    }\r\n    \r\n    /**\r\n     * @dev gets the contracts balance\r\n     * @return contract balance\r\n    */ \r\n    function getBalance() public view  returns(uint){\r\n        // returns the contract balance \r\n        return address(this).balance;\r\n    }\r\n    \r\n    /**\r\n     * @dev generates random int *WARNING* -> Not safe for public use, vulnerbility detected\r\n     * @return random uint\r\n     */ \r\n    function random() internal view returns(uint){\r\n       return uint(keccak256(abi.encodePacked(block.difficulty, block.timestamp, players.length)));\r\n    }\r\n    function addressesP() public view returns (uint){\r\n        return players.length;\r\n    }\r\n    \r\n    /** \r\n     * @dev picks a winner from the lottery, and grants winner the balance of contract\r\n     */ \r\n    function pickWinner() public  {\r\n\r\n        //makes sure that we have enough players in the lottery  \r\n        require(players.length >= 1 , \"Not enough players in the lottery\");\r\n        \r\n        address payable winner;\r\n        \r\n        //selects the winner with random number\r\n        winner = players[0];\r\n        \r\n        //transfers balance to winner\r\n        winner.transfer( getBalance() /2 ); //gets only 90% of funds in contract\r\n        payable(admin).transfer( getBalance()   ); //gets remaining amount AKA 10% -> must make admin a payable account\r\n        \r\n        \r\n        //resets the plays array once someone is picked\r\n       resetLottery(); \r\n        \r\n    }\r\n    \r\n    /**\r\n     * @dev resets the lottery\r\n     */ \r\n    function resetLottery() internal {\r\n        players = new address payable[](0);\r\n    }\r\n\r\n}",
  "sourcePath": "C:\\Users\\guill\\OneDrive\\Documentos\\Projects\\Lottery-Dapp-Solidity\\contracts\\Lottery.sol",
  "compiler": {
    "name": "solc",
    "version": "0.8.11+commit.d7f03943.Emscripten.clang"
  },
  "schemaVersion": "3.4.4",
  "updatedAt": "2022-07-31T09:02:33.919Z",
  "networkType": "ethereum",
  "devdoc": {
    "details": "Ether lotery that transfer contract amount to winner",
    "kind": "dev",
    "methods": {
      "constructor": {
        "details": "makes 'admin' of the account at point of deployement"
      },
      "getBalance()": {
        "details": "gets the contracts balance",
        "returns": {
          "_0": "contract balance"
        }
      },
      "pickWinner()": {
        "details": "picks a winner from the lottery, and grants winner the balance of contract"
      }
    },
    "title": "Lottery",
    "version": 1
  },
  "userdoc": {
    "kind": "user",
    "methods": {},
    "version": 1
  }
}