{
  "contractName": "Lottery",
  "abi": [
    {
      "inputs": [],
      "stateMutability": "nonpayable",
      "type": "constructor"
    },
    {
      "inputs": [],
      "name": "admin",
      "outputs": [
        {
          "internalType": "address",
          "name": "",
          "type": "address"
        }
      ],
      "stateMutability": "view",
      "type": "function",
      "constant": true
    },
    {
      "inputs": [
        {
          "internalType": "uint256",
          "name": "",
          "type": "uint256"
        }
      ],
      "name": "players",
      "outputs": [
        {
          "internalType": "address payable",
          "name": "",
          "type": "address"
        }
      ],
      "stateMutability": "view",
      "type": "function",
      "constant": true
    },
    {
      "stateMutability": "payable",
      "type": "receive",
      "payable": true
    },
    {
      "inputs": [],
      "name": "getBalance",
      "outputs": [
        {
          "internalType": "uint256",
          "name": "",
          "type": "uint256"
        }
      ],
      "stateMutability": "view",
      "type": "function",
      "constant": true
    },
    {
      "inputs": [],
      "name": "pickWinner",
      "outputs": [],
      "stateMutability": "nonpayable",
      "type": "function"
    }
  ],
  "bytecode": "0x608060405234801561001057600080fd5b5033600160006101000a81548173ffffffffffffffffffffffffffffffffffffffff021916908373ffffffffffffffffffffffffffffffffffffffff1602179055506000600160009054906101000a900473ffffffffffffffffffffffffffffffffffffffff169080600181540180825580915050600190039060005260206000200160009091909190916101000a81548173ffffffffffffffffffffffffffffffffffffffff021916908373ffffffffffffffffffffffffffffffffffffffff160217905550610b1d806100e66000396000f3fe6080604052600436106100435760003560e01c806312065fe0146101575780635d495aea14610182578063f71d96cb14610199578063f851a440146101d657610152565b366101525767016345785d8a00003414610092576040517f08c379a0000000000000000000000000000000000000000000000000000000008152600401610089906106c9565b60405180910390fd5b600160009054906101000a900473ffffffffffffffffffffffffffffffffffffffff1673ffffffffffffffffffffffffffffffffffffffff163373ffffffffffffffffffffffffffffffffffffffff1614156100ed57600080fd5b6000339080600181540180825580915050600190039060005260206000200160009091909190916101000a81548173ffffffffffffffffffffffffffffffffffffffff021916908373ffffffffffffffffffffffffffffffffffffffff160217905550005b600080fd5b34801561016357600080fd5b5061016c610201565b6040516101799190610702565b60405180910390f35b34801561018e57600080fd5b50610197610299565b005b3480156101a557600080fd5b506101c060048036038101906101bb919061074e565b6104c4565b6040516101cd91906107bc565b60405180910390f35b3480156101e257600080fd5b506101eb610503565b6040516101f891906107f8565b60405180910390f35b60003373ffffffffffffffffffffffffffffffffffffffff16600160009054906101000a900473ffffffffffffffffffffffffffffffffffffffff1673ffffffffffffffffffffffffffffffffffffffff1614610293576040517f08c379a000000000000000000000000000000000000000000000000000000000815260040161028a9061085f565b60405180910390fd5b47905090565b3373ffffffffffffffffffffffffffffffffffffffff16600160009054906101000a900473ffffffffffffffffffffffffffffffffffffffff1673ffffffffffffffffffffffffffffffffffffffff1614610329576040517f08c379a00000000000000000000000000000000000000000000000000000000081526004016103209061085f565b60405180910390fd5b60036000805490501015610372576040517f08c379a0000000000000000000000000000000000000000000000000000000008152600401610369906108f1565b60405180910390fd5b600080600080549050610383610529565b61038d9190610940565b8154811061039e5761039d610971565b5b9060005260206000200160009054906101000a900473ffffffffffffffffffffffffffffffffffffffff1690508073ffffffffffffffffffffffffffffffffffffffff166108fc6064605a6103f1610201565b6103fb91906109cf565b6104059190610a29565b9081150290604051600060405180830381858888f19350505050158015610430573d6000803e3d6000fd5b50600160009054906101000a900473ffffffffffffffffffffffffffffffffffffffff1673ffffffffffffffffffffffffffffffffffffffff166108fc6064600a610479610201565b61048391906109cf565b61048d9190610a29565b9081150290604051600060405180830381858888f193505050501580156104b8573d6000803e3d6000fd5b506104c1610563565b50565b600081815481106104d457600080fd5b906000526020600020016000915054906101000a900473ffffffffffffffffffffffffffffffffffffffff1681565b600160009054906101000a900473ffffffffffffffffffffffffffffffffffffffff1681565b6000444260008054905060405160200161054593929190610a7b565b6040516020818303038152906040528051906020012060001c905090565b600067ffffffffffffffff81111561057e5761057d610ab8565b5b6040519080825280602002602001820160405280156105ac5781602001602082028036833780820191505090505b50600090805190602001906105c29291906105c5565b50565b82805482825590600052602060002090810192821561063e579160200282015b8281111561063d5782518260006101000a81548173ffffffffffffffffffffffffffffffffffffffff021916908373ffffffffffffffffffffffffffffffffffffffff160217905550916020019190600101906105e5565b5b50905061064b919061064f565b5090565b5b80821115610668576000816000905550600101610650565b5090565b600082825260208201905092915050565b7f4d7573742073656e6420302e3120657468657220616d6f756e74000000000000600082015250565b60006106b3601a8361066c565b91506106be8261067d565b602082019050919050565b600060208201905081810360008301526106e2816106a6565b9050919050565b6000819050919050565b6106fc816106e9565b82525050565b600060208201905061071760008301846106f3565b92915050565b600080fd5b61072b816106e9565b811461073657600080fd5b50565b60008135905061074881610722565b92915050565b6000602082840312156107645761076361071d565b5b600061077284828501610739565b91505092915050565b600073ffffffffffffffffffffffffffffffffffffffff82169050919050565b60006107a68261077b565b9050919050565b6107b68161079b565b82525050565b60006020820190506107d160008301846107ad565b92915050565b60006107e28261077b565b9050919050565b6107f2816107d7565b82525050565b600060208201905061080d60008301846107e9565b92915050565b7f596f7520617265206e6f7420746865206f776e65720000000000000000000000600082015250565b600061084960158361066c565b915061085482610813565b602082019050919050565b600060208201905081810360008301526108788161083c565b9050919050565b7f4e6f7420656e6f75676820706c617965727320696e20746865206c6f7474657260008201527f7900000000000000000000000000000000000000000000000000000000000000602082015250565b60006108db60218361066c565b91506108e68261087f565b604082019050919050565b6000602082019050818103600083015261090a816108ce565b9050919050565b7f4e487b7100000000000000000000000000000000000000000000000000000000600052601260045260246000fd5b600061094b826106e9565b9150610956836106e9565b92508261096657610965610911565b5b828206905092915050565b7f4e487b7100000000000000000000000000000000000000000000000000000000600052603260045260246000fd5b7f4e487b7100000000000000000000000000000000000000000000000000000000600052601160045260246000fd5b60006109da826106e9565b91506109e5836106e9565b9250817fffffffffffffffffffffffffffffffffffffffffffffffffffffffffffffffff0483118215151615610a1e57610a1d6109a0565b5b828202905092915050565b6000610a34826106e9565b9150610a3f836106e9565b925082610a4f57610a4e610911565b5b828204905092915050565b6000819050919050565b610a75610a70826106e9565b610a5a565b82525050565b6000610a878286610a64565b602082019150610a978285610a64565b602082019150610aa78284610a64565b602082019150819050949350505050565b7f4e487b7100000000000000000000000000000000000000000000000000000000600052604160045260246000fdfea2646970667358221220e512d0be5f374a24208764132f5c206237da76f3db2f9df00e46626ea142d1b264736f6c634300080b0033",
  "immutableReferences": {},
  "source": "// SPDX-License-Identifier: MIT\r\npragma solidity >=0.4.22 <0.9.0;\r\n\r\ncontract Lottery {\r\n     //list of players registered in lotery\r\n    address payable[] public players;\r\n    address public admin;\r\n    \r\n    \r\n    /**\r\n     * @dev makes 'admin' of the account at point of deployement\r\n     */ \r\n    constructor() {\r\n        admin = msg.sender;\r\n        //automatically adds admin on deployment\r\n        players.push(payable(admin));\r\n    }\r\n    \r\n    modifier onlyOwner() {\r\n        require(admin == msg.sender, \"You are not the owner\");\r\n        _;\r\n    }\r\n    \r\n    \r\n    /**\r\n     * @dev requires the deposit of 0.1 ether and if met pushes on address on list\r\n     */ \r\n    receive() external payable {\r\n        //require that the transaction value to the contract is 0.1 ether\r\n        require(msg.value == 0.1 ether , \"Must send 0.1 ether amount\");\r\n        \r\n        //makes sure that the admin can not participate in lottery\r\n        require(msg.sender != admin);\r\n        \r\n        // pushing the account conducting the transaction onto the players array as a payable adress\r\n        players.push(payable(msg.sender));\r\n    }\r\n    \r\n    /**\r\n     * @dev gets the contracts balance\r\n     * @return contract balance\r\n    */ \r\n    function getBalance() public view onlyOwner returns(uint){\r\n        // returns the contract balance \r\n        return address(this).balance;\r\n    }\r\n    \r\n    /**\r\n     * @dev generates random int *WARNING* -> Not safe for public use, vulnerbility detected\r\n     * @return random uint\r\n     */ \r\n    function random() internal view returns(uint){\r\n       return uint(keccak256(abi.encodePacked(block.difficulty, block.timestamp, players.length)));\r\n    }\r\n    \r\n    /** \r\n     * @dev picks a winner from the lottery, and grants winner the balance of contract\r\n     */ \r\n    function pickWinner() public onlyOwner {\r\n\r\n        //makes sure that we have enough players in the lottery  \r\n        require(players.length >= 3 , \"Not enough players in the lottery\");\r\n        \r\n        address payable winner;\r\n        \r\n        //selects the winner with random number\r\n        winner = players[random() % players.length];\r\n        \r\n        //transfers balance to winner\r\n        winner.transfer( (getBalance() * 90) / 100); //gets only 90% of funds in contract\r\n        payable(admin).transfer( (getBalance() * 10) / 100); //gets remaining amount AKA 10% -> must make admin a payable account\r\n        \r\n        \r\n        //resets the plays array once someone is picked\r\n       resetLottery(); \r\n        \r\n    }\r\n    \r\n    /**\r\n     * @dev resets the lottery\r\n     */ \r\n    function resetLottery() internal {\r\n        players = new address payable[](0);\r\n    }\r\n \r\n}\r\n",
  "sourcePath": "C:\\Users\\guill\\OneDrive\\Documentos\\Projects\\Lottery-Dapp-Solidity\\contracts\\Lottery.sol",
  "compiler": {
    "name": "solc",
    "version": "0.8.11+commit.d7f03943.Emscripten.clang"
  },
  "schemaVersion": "3.4.4",
  "updatedAt": "2022-01-23T02:09:07.638Z",
  "networkType": "ethereum",
  "devdoc": {
    "kind": "dev",
    "methods": {
      "constructor": {
        "details": "makes 'admin' of the account at point of deployement"
      },
      "getBalance()": {
        "details": "gets the contracts balance",
        "returns": {
          "_0": "contract balance"
        }
      },
      "pickWinner()": {
        "details": "picks a winner from the lottery, and grants winner the balance of contract"
      }
    },
    "version": 1
  },
  "userdoc": {
    "kind": "user",
    "methods": {},
    "version": 1
  }
}